:100000000A128A11D02D00308A000408840A82075F
:10001000003445346E3474346534723420347434AE
:100020006834653420344B346534793420340034FA
:100B4C00F0308316031387007F30F00070088105A6
:100B5C0008003734383439342F343434353436349F
:100B6C002A343134323433342D34433430343D343C
:100B7C002B347E088A007F088200BF250A128A1156
:100B8C008000840A04087D0603190034FF0A031947
:100B9C00FE0AC32DF901FA0183133030FD00053034
:100BAC00FE00AF30FF00203084000A128A11C325EA
:100BBC000A128A1183010A128A11422EF001F101E4
:100BCC0003307102E93003197002031CEE2DEF2D76
:100BDC00F12D012E012E0130F0070318F10A00301F
:100BEC00F10703307102E93003197002031CFF2D69
:100BFC00002EF12D012E080002300A128A117526E2
:100C0C000A128A1128300A128A1175260A128A11C0
:100C1C000E300A128A1175260A128A1106300A122F
:100C2C008A1175260A128A1180300A128A117526C9
:100C3C000A128A110800F600342E760884000A1273
:100C4C008A1103200A128A110A128A11B3260A1277
:100C5C008A110130F5007508F607342E76088400E9
:100C6C000A128A1103200A128A110038031D3F2E22
:100C7C00402E232E412E08008316031388010A12DE
:100C8C008A1102260A128A110A128A11A6250A1240
:100C9C008A1180300A128A1175260A128A110130C3
:100CAC000A128A1121260A128A115C2EC7300A12E6
:100CBC008A1175260A128A110A128A11F1260A1251
:100CCC008A11F7007708F80078080A128A11B326FF
:100CDC000A128A115C2E5C2E0A128A110028F4006A
:100CEC008312031308110F30F20072088805740880
:100CFC00F039F2007208880488150A128A11E4256A
:100D0C000A128A118312031388110A128A11E4251C
:100D1C000A128A110F30F20072088312031388052D
:100D2C007408F20003300310F20DFF3E031D992EE0
:100D3C000310720DF039F3007308880488150A1239
:100D4C008A11E4250A128A118312031388110A12DC
:100D5C008A11E4250A128A110800F4008312031385
:100D6C0008150F30F200720888057408F039F2008B
:100D7C007208880488150A128A11E4250A128A114D
:100D8C008312031388110A128A11E4250A128A119C
:100D9C000F30F20072088312031388057408F200F6
:100DAC0003300310F20DFF3E031DD72E0310720DFE
:100DBC00F039F3007308880488150A128A11E425A7
:100DCC000A128A118312031388110A128A11E4255C
:100DDC000A128A110800831203138701F52E071ECD
:100DEC00F82EF92E772F871EFC2EFD2E772F071F3E
:100DFC00002F012F772F871B042F052FF52E772F10
:100E0C00772F772F0710871587190D2F112F831226
:100E1C0003130715142F8312031307110719172F28
:100E2C001B2F8312031387141E2F83120313871097
:100E3C00071E212F222F2E2F871E252F262F2E2FD8
:100E4C00071F292F2A2F2E2F871B2D2F2E2F302FA8
:100E5C00FA01872F87100714071E352F362F432FC3
:100E6C00871E392F3A2F432F071F3D2F3E2F432F1D
:100E7C00871B412F422F472F432FFA010314FA0DE2
:100E8C00872F07118714071E4C2F4D2F5A2F871EA3
:100E9C00502F512F5A2F071F542F552F5A2F871B66
:100EAC00582F592F5F2F5A2F0230F0007008FA007C
:100EBC00872F87110715071E642F652F722F871E2A
:100ECC00682F692F722F071F6C2F6D2F722F871BA6
:100EDC00702F712F772F722F0330F0007008FA00EB
:100EEC00872F071E7A2F7B2F082F871E7E2F7F2F91
:100EFC00082F071F822F832F082F871F862F872FDE
:100F0C00082F071A8A2F8B2F992F871E8E2F8F2F22
:100F1C00992F071F922F932F992F871F962F972F5B
:100F2C00992FF901DB2F071E9C2F9D2FAD2F871AB0
:100F3C00A02FA12FAD2F071FA42FA52FAD2F871FDB
:100F4C00A82FA92FAD2FF9010314F90DDB2F071EC4
:100F5C00B02FB12FC22F871EB42FB52FC22F071B56
:100F6C00B82FB92FC22F871FBC2FBD2FC22F023015
:100F7C00F0007008F900DB2F071EC52FC62FDB2FE2
:100F8C00871EC92FCA2FDB2F071FCD2FCE2FDB2F8C
:100F9C00871BD12FD22FDB2F0330F0007008F90004
:100FAC00DB2FDB2FDB2FDB2FDB2F071EDE2FDF2FC3
:100FBC00DB2F871EE22FE32FDB2F071FE62FE72FF8
:100FCC00DB2F871FEA2FEB2FDB2FEC2F7A08F0009B
:100FDC0002300310F00DFF3E031DEF2F2030700781
:100FEC00F10079087107F20072088400831300087D
:040FFC00FF2F0800BB
:02400E007AFF37
:00000001FF
